:100000008A11EB2FFF1B0C2883137F18831700081E
:10001000840A0319FF0A080000308A000408840AD1
:10002000820700345034513452345334373400345E
:100030005734583459345A343934003431342E3426
:100040002C3421343F34003441344234433432348C
:10005000003444344534463433340034473448346F
:100060004934343400344A344B344C34353400345D
:100070004D344E344F3436340034543455345634C1
:0A00800038340034203430340034EA
:10028000FF3083120313D200D101CF01D001080047
:1002900064008001840A0406031900340406492915
:1002A00083120313A6002608A30001308A11D52269
:1002B0008A1108008A1166218A1183160313911688
:1002C0001116111A64296529612908008316031380
:1002D00014196B296C29662911081F39031D71290E
:1002E0007229662908008A1166218A118312031374
:1002F0008C1183160313111483128C1D80298129FC
:100300007C2908008A1166218A11831203138C113B
:1003100083160313111583128C1D8F2990298B29A5
:100320000800831203138514952983120313851083
:10033000203083120313A000A00B9C299F290800E2
:100340008A1166218A11831203138C1183160313F9
:10035000911583128C1DAD29AE29A9291308080017
:1003600083120313A5005508031DB729B829B9291D
:10037000BF295508633E84002508831380000800C8
:100380000D341334183400341D342234273400342F
:1003900001342C3407340034003431340034003458
:1003A0007E088A007F0882008A11D0218A1180008D
:1003B000840A04087D0603190034FF0A0319FE0AA3
:1003C000D42983160313871507168030940028302C
:1003D00083120313940009308316031393008312CE
:1003E00003138C1108008A1166218A1183160313E6
:1003F0009112831203138C118316031311168312A7
:100400008C1D032A042AFF29080064308312031379
:10041000A0000030A100A2000E30A3000030A40014
:100420008A1140228A1183120313D401D5010800D6
:1004300083120313A1008C11210893008C1D212A23
:10044000222A1E2A83160313110E83120313A000FF
:10045000A00C200C0139080083120313A20022080B
:100460000F39A10002300310A10DFF3E031D332AF6
:1004700005080339210485008A1191218A11080099
:10048000831203132008A5004C2A250884002108A4
:10049000831380000130A5070130A3020030031C44
:1004A000A403A402230A031D592A240A031D592A5E
:1004B0005A2A452A080083120313AC00290803199D
:1004C000622A632A6B2A2C08C03EAA000030031857
:1004D0000130AB00722A2C08803EAA0000300318BD
:1004E0000130AB002A088A1177228A110800831292
:1004F0000313A8002808A30000308A11D5228A110E
:1005000004308312031328020318872A882A932AA7
:10051000033083120313A7009730A600A60B8E2A80
:10052000A70B8E2A00000800831203130714A12AC8
:10053000C73083120313A2009D2AA20B9C2AA02A73
:100540000000013083120313A0020030031CA1033A
:10055000A102200A031DB02A210A031DB02AB12AD4
:10056000982A07100800831203132008A20021080C
:10057000A300C02A0130A0070318A10A0030A10778
:100580002108FF00200884008A1102208A11003A05
:10059000031DCB2ACC2ABA2A22082002A000230855
:1005A000031C230A2102A100080083120313A500E3
:1005B000250C031C051003180514DE2ADF2A000091
:1005C000831203132308A40004300310A40CFF3E7D
:1005D000031DE52A24088A112C228A118312031391
:1005E00023080F398A112C228A1120308312031319
:1005F000A400A40BF92AFC2A080083120313A40008
:1006000041302402031C052B062B232B5B302402D4
:1006100003180B2B0C2B232B5308031D102B112B12
:100620001A2B2408203EA000A1012008A2002108C6
:10063000A300212B2408A000A1012008A20021086A
:10064000A3002208242B240808008A1173218A1190
:1006500020308A1118228A11003A0319302B312BCD
:10066000352B8A1182218A11542B831203132308FC
:100670008A1118228A1183120313A5014D2B250814
:100680002207A40024088400831300088A1118227A
:100690008A11013083120313A50723082502031CC6
:1006A000522B532B3F2B312B080083120313A60030
:1006B0000D305402031C5D2B5E2B5F2B872B5408DF
:1006C000A7006F2B2708633E840083130008FF00F8
:1006D0002708643E84007F088000FF30A707550884
:1006E000803AA5002708803AA502031C782B792BB5
:1006F000622B5508643E8400260883138000013075
:10070000D4070130D5075408643E840080010800F6
:10071000831203132008A400A42B0130A20200308E
:10072000031CA303A3022108A10A84008313000869
:10073000FF002408A40A84007F0880000008031D2D
:10074000A22BA32BA42BB12B22082304031DA92B1E
:10075000AA2B8D2BB12B2408840083138001013038
:10076000A4070130A2020030031CA303A302220A43
:10077000031DBE2B230A031DBE2BBF2BAB2B080072
:100780008312031355080319C62BC72BFD2B5408DE
:10079000031DCB2BCC2BCD2BFD2B5508FF3EA200F0
:1007A000E02B831203132208653E840083130008A4
:1007B000FF002208643E84007F0880000130A20709
:1007C0005408FF3EA000FF3003180030A1002108AC
:1007D000803A803C031DEE2B20082202031CF12BE3
:1007E000F22BD12B013083120313D4020130D50236
:1007F0005408643E840083138001080083120313AD
:10080000A501A31F042C052C0C2CA209A309A20AE4
:100810000319A30A0130A500A11F0F2C102C152CC1
:10082000A009A109A00A0319A10A2008210403199B
:100830001A2C1B2C482C0130A400272C013003104B
:10084000A00DA10DFF3E031D1F2C0130A407A11F09
:100850002A2C2B2C1E2C21082302031D312C2008AE
:100860002202031C342C352C3B2C2008A202210828
:10087000031CA303A30201300310A10CA00CFF3E34
:10088000031D3C2C0130A402031D472C482C2B2CAB
:10089000250803194C2C4D2C522CA209A309A20A9D
:1008A0000319A30A2308A1002208A000080083124C
:1008B0000313A20104302202031C5F2C602C612C64
:1008C000B52CF03083160313860001308312031316
:1008D000A000220A6D2C0310A00DFF3E031D6B2CFF
:1008E0002008FF3A0F398600023083120313A0005C
:1008F000A00B782C7B2C831203130608A000043075
:100900000310A00CFF3E031D802C2008A1000F3017
:10091000A1050F30210603198E2C8F2CB22CA301B8
:100920000130A000230A962C0310A00DFF3E031DEA
:10093000942C20082105031D9E2C9F2CAA2C2208F4
:10094000A00002300310A00DFF3E031DA22C2308BF
:100950002007B82C0130A30704302302031CB12C5C
:10096000B22C902C0130A2075A2C0F308600FF3099
:100970000800831203138501273083120313AA0092
:10098000F430A900A90BC22CAA0BC22CC72C8312CD
:100990000313051003308A112C228A1107308312A9
:1009A0000313AA007C30A900A90BD42CAA0BD42CC9
:1009B000D92C03308A112C228A11C73083120313D9
:1009C000A900E22CA90BE12CE52C000003308A11D0
:1009D0002C228A11C73083120313A900EF2CA90B14
:1009E000EE2CF22C000002308A112C228A11C73022
:1009F00083120313A900FC2CA90BFB2CFF2C000075
:100A000028308A1177228A110C308A1177228A11B4
:100A100006308A1177228A1101308A1177228A11D1
:100A2000033083120313AA009730A900A90B162DD7
:100A3000AA0B162D000008008A1173218A1121309B
:100A40008A1118228A11003A0319272D282D2D2DDD
:100A50008A1182218A110030A32D8A11A0218A11C6
:100A600083120313A60026080319372D382D3E2DB7
:100A70002608230203183D2D3E2D452D8A115A21AB
:100A80008A118A1182218A112B2D8A11F3218A1150
:100A900083120313A701902D27082207A40024081E
:100AA00084008A11A0218A1183138000831203130A
:100AB00027082207A40024088400000A031D612DD2
:100AC000622D732D8A115A218A118A1182218A116D
:100AD0008312031327082207A40024088400831329
:100AE00080012708A32D2608FF3EA400FF3003182D
:100AF0000030A5002508803A803C031D812D240884
:100B000027020318842D852D892D8A11F3218A113E
:100B10008C2D8A115A218A11013083120313A707E1
:100B200026082702031C952D962D4C2D26082207FA
:100B3000A40024088400831380018A1182218A1171
:100B4000831203132608080083120313A90100303F
:100B50008A115B228A1153308A1150218A113A304E
:100B60008A1150218A1120308A1150218A11831252
:100B70000313B40154083402031CBF2DC02DC52D2E
:100B80002030AF000030B000D02D3408643E840027
:100B900083130008AD00AE012D08AF002E08B00091
:100BA0002F088A1150218A11013083120313B407D0
:100BB0000D303402031CDD2DDE2DBA2DA901A90A4A
:100BC00000308A115B228A1152308A1150218A1119
:100BD0003A308A1150218A1120308A1150218A110D
:100BE000563083120313A0000030A1008A11B322F3
:100BF0008A11831203132008B300B40133083402AE
:100C0000031C032E042E092E2030B1000030B20048
:100C1000142E3408563E840083130008AD00AE0144
:100C20002D08B1002E08B20031088A1150218A1116
:100C3000013083120313B4070D303402031C212E3C
:100C4000222EFE2DA9015508033E8A115B228A112E
:100C50000F308A1177228A11080007308316031398
:100C60009F008501F030860018308700831203133F
:100C700085010F30860087018A11B9248A118A11F3
:100C8000E1218A11643083120313A0000030A10017
:100C9000A2000E30A3000030A4008A1140228A1165
:100CA000563083120313A0000030A100A2000E30C2
:100CB000A3000030A4008A1140228A11831203137A
:100CC000D501D4010130D300FF30D200D101CF01D2
:100CD000D001CD01CE018A11A4258A11FF308312E3
:100CE0000313CB008A1157248A1183120313CC00FB
:100CF0004C0A03197C2E7D2EA92E4C084B06031995
:100D0000822E832EA92E413083120313BB00EE30B6
:100D1000BA00BA0B892EBB0B892E8A1157248A116F
:100D2000831203134C06031D962E972EB02E5030BF
:100D3000A0000030A1008A1194228A1183120313AB
:100D40004C088A110B278A11831203134C08CB001D
:100D5000B02E4C0A031DAD2EAE2EB02EFF30CB00B0
:100D60004F0850040319B52EB62EC52E0130CF0200
:100D70000030031CD003D0024F085004031DC12EC5
:100D8000C22EC52E8A1140218A110130831203130D
:100D9000CD070318CE0A0030CE0701304E02F430E2
:100DA00003194D02031CD52ED62EFF2ECD01CE01E8
:100DB0003C30A2000D30A3008A111C258A11831239
:100DC0000313CA004A080319E62EE72EFF2E5630F9
:100DD000A0003C30A1000D30A2000030A3008A1119
:100DE00088238A1183120313E3017830A0000030B6
:100DF000A1008A1194228A118A11A4258A11C73070
:100E000083120313BA00042FBA0B032F072F00001D
:100E1000722E8A11002883120313B9000330390699
:100E2000031D132F142F242F8A1140218A1183129E
:100E30000313550803191D2F1E2F202F0130D50233
:100E40008A11A4258A11EA2F07303906031D292F9C
:100E50002A2F382F8A1140218A1183120313540834
:100E600055020318342F352F202F0130D507202F9E
:100E70000B303906031D3D2F3E2F452F8A1140218F
:100E80008A118A11C0238A11202F0C303906031DC4
:100E90004A2F4B2F592F8A1140218A118312031395
:100EA00053080319542F562F0130572F0030D30009
:100EB000202F0E303906031D5E2F5F2F7D2F8A11E4
:100EC00040218A118312031354080319682F692FD4
:100ED000202F6430A2005408A3008A1125238A1110
:100EE0008A1105228A11963083120313A000003064
:100EF000A1008A1194228A11202F0F303906031D78
:100F0000822F832F872F8A1140218A11202F3908A1
:100F1000A03E840083130008B8003808031D912FF9
:100F2000922F932FEA2F3808A0000030031D803045
:100F3000A1008A11B3228A11831203132008B7007B
:100F400039085206031DA52FA62FD42F4F08500491
:100F50000319AB2FAC2FD42F3708B500B6013508D5
:100F6000A0003608A1005108013EA200003003187D
:100F70000130A3008A11FE238A1183120313200873
:100F8000D1005108380784008A110C208A118A1177
:100F9000FD228A118A11B0218A1120308312031395
:100FA000CF000330D000202F8A1140218A118312F4
:100FB0000313D101380884008A110C208A118A1188
:100FC000FD228A118A1155238A11831203133908CD
:100FD000D200CD2F08008313B030FD000130FE0099
:100FE000C030FF00A03084008A11D4218A114D3016
:100FF000840072308A1148218A1183018A112D2EB2
:02400E00713F00
:00000001FF
