:100000008A11EB2FFF1B0C2883137F18831700081E
:10001000840A0319FF0A080000308A000408840AD1
:10002000820700345034513452345334373400345E
:100030005734583459345A343934003431342E3426
:100040002C3421343F34003441344234433432348C
:10005000003444344534463433340034473448346F
:100060004934343400344A344B344C34353400345D
:100070004D344E344F3436340034543455345634C1
:0A00800038340034203430340034EA
:1002C400FF3083120313D200D101CF01D001080003
:1002D40064008001840A04060319003404066B29AF
:1002E40083120313A6002608A30001308A11F0220A
:1002F4008A1108008A11AA218A1183160313111482
:10030400111885298629822908008A11AA218A11AF
:100314008316031311151119902991298D290800A9
:100324008A11AA218A118316031391121116111A24
:100334009C299D29992908008A11AA218A118316CA
:10034400031391161116111AA829A929A529080021
:10035400831603131419AF29B029AA2911081F39C8
:10036400031DB529B629AA2908008312031385148D
:10037400BB29831203138510203083120313A000BA
:10038400A00BC229C52908008A11AA218A11831643
:1003940003139115141CCF29D029CC2983120313DC
:1003A4001308A0002008080083120313A5005508B1
:1003B400031DDD29DE29DF29E5295508633E840074
:1003C40025088313800008000D34133418340034D6
:1003D4001D3422342734003401342C3407340034DF
:1003E40000343134003400347E088A007F088200EF
:1003F4008A11F6218A118000840A04087D060319F3
:100404000034FF0A0319FE0AFA2983160313871519
:1004140007168030940028308312031394000930A7
:10042400831603139300831203138C1108006430A2
:1004340083120313A0000030A100A2000E30A30019
:100444000030A4008A115B228A1183120313D401A1
:10045400D501080083120313A20022080F39A1005A
:1004640002300310A10DFF3E031D332A0508033992
:10047400210485008A11B7218A110800831203130D
:10048400A1008A11AA218A1183120313210893005F
:100494008A11AA218A11831603131418522A532A83
:1004A4004D2A110E83120313A000A00C200C013955
:1004B4000800831203132008A500672A2508840076
:1004C4002108831380000130A5070130A302003006
:1004D400031CA403A402230A031D742A240A031D73
:1004E400742A752A602A080083120313AC002908B1
:1004F40003197D2A7E2A862A2C08C03EAA000030D1
:1005040003180130AB008D2A2C08803EAA0000306D
:1005140003180130AB002A088A1192228A110800BC
:1005240083120313A8002808A30000308A11F022C4
:100534008A1104308312031328020318A22AA32A5F
:10054400AE2A033083120313A7009730A600A60B2C
:10055400A92AA70BA92A0000080083120313071471
:10056400BC2AC73083120313A200B82AA20BB72AED
:10057400BB2A0000013083120313A0020030031CC5
:10058400A103A102200A031DCB2A210A031DCB2AA1
:10059400CC2AB32A07100800831203132008A200F0
:1005A4002108A300DB2A0130A0070318A10A0030A8
:1005B400A1072108FF00200884008A1102208A1163
:1005C400003A031DE62AE72AD52A22082002A000C1
:1005D4002308031C230A2102A10008008312031329
:1005E400A500250C031C051003180514F92AFA2A82
:1005F4000000831203132308A40004300310A40C86
:10060400FF3E031D002B24088A112C228A11831219
:10061400031323080F398A112C228A1120308312E4
:100624000313A400A40B142B172B08008312031329
:10063400A40041302402031C202B212B3E2B5B30D1
:1006440024020318262B272B3E2B5308031D2B2B88
:100654002C2B352B2408203EA000A1012008A20049
:100664002108A3003C2B2408A000A1012008A2001B
:100674002108A30022083F2B240808008A117C21AA
:100684008A1120308A1140228A11003A03194B2B17
:100694004C2B502B8A1187218A116F2B8312031341
:1006A40023088A1140228A1183120313A501682B9F
:1006B40025082207A40024088400831300088A1153
:1006C40040228A11013083120313A507230825024F
:1006D400031C6D2B6E2B5A2B4C2B08008312031317
:1006E400A6000D305402031C782B792B7A2BA22BF5
:1006F4005408A7008A2B2708633E8400831300084C
:10070400A5002708643E840025088000FF30A70761
:100714005508803AA5002708803AA502031C932BAC
:10072400942B7D2B5508643E840026088313800097
:100734000130D4070130D5075408643E8400800199
:100744000800831203132008A500BF2B0130A20266
:100754000030031CA303A3022108A10A840083130D
:100764000008A4002508A50A8400240880000008C5
:10077400031DBD2BBE2BBF2BCC2B22082304031D32
:10078400C42BC52BA82BCC2B2508840083138001F4
:100794000130A5070130A2020030031CA303A30209
:1007A400220A031DD92B230A031DD92BDA2BC62BAE
:1007B40008008312031355080319E12BE22B182CAC
:1007C4005408031DE62BE72BE82B182C5508FF3E95
:1007D400A200FB2B831203132208653E84008313BB
:1007E4000008A0002208643E840020088000013034
:1007F400A2075408FF3EA000FF3003180030A100F8
:100804002108803A803C031D092C20082202031C85
:100814000C2C0D2CEC2B013083120313D402013069
:10082400D5025408643E84008313800108008312B7
:100834000313A501A31F1F2C202C272CA209A309F5
:10084400A20A0319A30A0130A500A11F2A2C2B2CEC
:10085400302CA009A109A00A0319A10A2008210427
:100864000319352C362C632C0130A400422C0130A2
:100874000310A00DA10DFF3E031D3A2C0130A40767
:10088400A11F452C462C392C21082302031D4C2C76
:1008940020082202031C4F2C502C562C2008A202A4
:1008A4002108031CA303A30201300310A10CA00C14
:1008B400FF3E031D572C0130A402031D622C632C40
:1008C400462C25080319672C682C6D2CA209A30952
:1008D400A20A0319A30A2308A1002208A000080001
:1008E40083120313A20104302202031C7A2C7B2CF2
:1008F4007C2CD02CF0308316031386000130831235
:100904000313A000220A882C0310A00DFF3E031D30
:10091400862C2008FF3A0F39860002308312031315
:10092400A000A00B932C962C831203130608A0009E
:1009340004300310A00CFF3E031D9B2C2008A100D3
:100944000F30A1050F3021060319A92CAA2CCD2C98
:10095400A3010130A000230AB12C0310A00DFF3E17
:10096400031DAF2C20082105031DB92CBA2CC52C5E
:100974002208A00002300310A00DFF3E031DBD2C71
:1009840023082007D32C0130A30704302302031CBF
:10099400CC2CCD2CAB2C0130A207752C0F3086004B
:1009A400FF300800831203138501273083120313D9
:1009B400AA00F430A900A90BDD2CAA0BDD2CE22C33
:1009C40083120313051003308A112C228A11073075
:1009D40083120313AA007C30A900A90BEF2CAA0BE5
:1009E400EF2CF42C03308A112C228A11C730831285
:1009F4000313A900FD2CA90BFC2C002D00000330CF
:100A04008A112C228A11C73083120313A9000A2DDC
:100A1400A90B092D0D2D000002308A112C228A11F8
:100A2400C73083120313A900172DA90B162D1A2DF5
:100A3400000028308A1192228A110C308A119222E5
:100A44008A1106308A1192228A1101308A11922267
:100A54008A11033083120313AA009730A900A90B4B
:100A6400312DAA0B312D000008008A117C218A1136
:100A740021308A1140228A11003A0319422D432D54
:100A8400482D8A1187218A110030A32D8A11C6218D
:100A94008A1183120313A70027080319522D532D1B
:100AA400592D270823020318582D592D602D8A111A
:100AB4009E218A118A1187218A11462D8A11922139
:100AC4008A1183120313A601902D26082207A4007D
:100AD400240884008A11C6218A118313800083129A
:100AE40003132708FF3EA400FF3003180030A500BD
:100AF4002508803A803C031D812D24082602031812
:100B0400842D852D892D8A1192218A118C2D8A118B
:100B14009E218A11013083120313A6072708260297
:100B2400031C952D962D672D27082207A400240861
:100B34008400831380018A1187218A11831203138D
:100B44002708080083120313A90100308A117622B2
:100B54008A1153308A1172218A113A308A11722112
:100B64008A1120308A1172218A1183120313B4016D
:100B740054083402031CBF2DC02DC52D2030AF00F6
:100B84000030B000D02D3408643E84008313000884
:100B9400AD00AE012D08AF002E08B0002F088A1159
:100BA40072218A11013083120313B4070D30340209
:100BB400031CDD2DDE2DBA2DA901A90A00308A11EE
:100BC40076228A1152308A1172218A113A308A119E
:100BD40072218A1120308A1172218A1156308312AF
:100BE4000313A0000030A1008A11CE228A118312BF
:100BF40003132008B300B40133083402031C032E8A
:100C0400042E092E2030B1000030B200142E340816
:100C1400563E840083130008AD00AE012D08B100D8
:100C24002E08B20031088A1172218A110130831210
:100C34000313B4070D303402031C212E222EFE2D83
:100C4400A9015508033E8A1176228A110F308A11B0
:100C540092228A1108000730831603139F0085012E
:100C6400F0308600183087008312031385010F309B
:100C7400860087018A11D4248A118A1107228A11D5
:100C8400643083120313A0000030A100A2000E30D0
:100C9400A3000030A4008A115B228A11563083120B
:100CA4000313A0000030A100A2000E30A300003006
:100CB400A4008A115B228A1183120313D501D40183
:100CC4000130D300FF30D200D101CF01D001CD01DA
:100CD400CE018A11A4258A11FF3083120313CB009D
:100CE4008A1172248A1183120313CC004C0A03194B
:100CF4007C2E7D2EA92E4C084B060319822E832EA2
:100D0400A92E413083120313BB00EE30BA00BA0B94
:100D1400892EBB0B892E8A1172248A118312031324
:100D24004C06031D962E972EB02E5030A000003096
:100D3400A1008A11AF228A11831203134C088A116D
:100D44000B278A11831203134C08CB00B02E4C0AD4
:100D5400031DAD2EAE2EB02EFF30CB004F08500435
:100D64000319B52EB62EC52E0130CF020030031C58
:100D7400D003D0024F085004031DC12EC22EC52E2D
:100D84008A1162218A11013083120313CD070318DB
:100D9400CE0A0030CE0701304E02F43003194D0262
:100DA400031CD52ED62EFF2ECD01CE013C30A20041
:100DB4000D30A3008A1137258A1183120313CA0048
:100DC4004A080319E62EE72EFF2E5630A0003C30C9
:100DD400A1000D30A2000030A3008A11A3238A11C0
:100DE40083120313E3017830A0000030A1008A11BC
:100DF400AF228A118A11A4258A11C73083120313E2
:100E0400BA00042FBA0B032F072F0000722E8A1189
:100E1400002883120313B90003303906031D132F6E
:100E2400142F242F8A1162218A1183120313550867
:100E340003191D2F1E2F202F0130D5028A11A4253E
:100E44008A11EA2F07303906031D292F2A2F382F3C
:100E54008A1162218A11831203135408550203185C
:100E6400342F352F202F0130D507202F0B30390692
:100E7400031D3D2F3E2F452F8A1162218A118A11AD
:100E8400DB238A11202F0C303906031D4A2F4B2FE8
:100E9400592F8A1162218A118312031353080319EB
:100EA400542F562F0130572F0030D300202F0E30EF
:100EB4003906031D5E2F5F2F7D2F8A1162218A114F
:100EC4008312031354080319682F692F202F6430E9
:100ED400A2005408A3008A1140238A118A111922FE
:100EE4008A11963083120313A0000030A1008A11E6
:100EF400AF228A11202F0F303906031D822F832F32
:100F0400872F8A1162218A11202F3908A03E84007C
:100F140083130008B8003808031D912F922F932FD4
:100F2400EA2F3808A0000030031D8030A1008A1188
:100F3400CE228A11831203132008B70039085206FF
:100F4400031DA52FA62FD42F4F0850040319AB2F30
:100F5400AC2FD42F3708B500B6013508A0003608E9
:100F6400A1005108013EA200003003180130A30083
:100F74008A1119248A11831203132008D1005108FD
:100F8400380784008A110C208A118A1118238A11C7
:100F94008A11D6218A11203083120313CF00033023
:100FA400D000202F8A1162218A1183120313D101E8
:100FB400380884008A110C208A118A1118238A1196
:100FC4008A1170238A11831203133908D200CD2F9A
:100FD40008008313B030FD000130FE00E630FF004E
:100FE400A03084008A11FA218A114D3084007230B5
:0C0FF4008A116A218A1183018A112D2EB6
:02400E00713F00
:00000001FF
