:040000008A11112828
:10000800FE00030E83120313CA000408CB000A087B
:10001800CC007F08CD008A11452A8A111328831342
:10002800CC30FD000630FE00AA30FF00BC30840052
:100038008A119D268A11A0308400BC308A11E426DA
:100048008A11203084004A308A11E4268A118301FB
:100058008A112E280730831603139F008501F0307C
:100068008600183087008312031385010F3086003D
:1000780087018A116D238A118A11E2258A113C3081
:1000880083120313D0000030D100D2000E30D30009
:100098000030D4008A1139268A11AE308312031336
:1000A800D0000030D100D2000E30D3000030D40090
:1000B8008A1139268A11A03083120313D000003028
:1000C800D100D2000E30D3000030D4008A11392676
:1000D8008A112E3083120313D0000030D100D200D1
:1000E8000E30D3000030D4008A1139268A118312C9
:1000F8000313AD01AC010130AB00FF30AA00A90128
:10010800A001A101A201A6018A11E4228A11831289
:100118000313DA01DA0A00308A1101268A11013044
:1001280083120313D8008A1154268A1106308312C9
:100138000313EE001330ED00AD30EC00EC0BA228F9
:10014800ED0BA228EE0BA22800008A11E4228A11E6
:10015800FF3083120313EF008312031326080319D9
:10016800B628B728BB288B13A801A6018B1722082D
:100178000319BF28C028DF28A2015030D000003062
:10018800D1008A11C3258A11273083120313ED0089
:10019800F430EC00EC0BCE28ED0BCE28D3285030F1
:1001A80083120313D0000030D1008A11C3258A11AD
:1001B8008A11E4228A118A11D1238A118312031326
:1001C800F000700A0319E928EA28162970086F0652
:1001D8000319EF28F0281629413083120313ED0084
:1001E800EE30EC00EC0BF628ED0BF6288A11D12343
:1001F8008A11831203137006031D032904291D297C
:100208005030D0000030D1008A11C3258A118312E2
:10021800031370088A113E218A1183120313700890
:10022800EF001D29700A031D1A291B291D29FF30FB
:10023800EF0020082104031922292329322901303B
:10024800A0020030031CA103A10220082104031D01
:100258002E292F2932298A11EC268A11C7308312B8
:100268000313EC003729EC0B36293A290000B02893
:100278008A11112883120313EB0003306B06031D48
:100288004629472957298A11EC268A118312031314
:100298002D0803195029512953290130AD028A111B
:1002A800E4228A11442A07306B06031D5C295D2964
:1002B8006B298A11EC268A11831203132C082D024C
:1002C80003186729682953290130AD0753290B30D2
:1002D8006B06031D7029712978298A11EC268A1169
:1002E8008A11E0248A1153290C306B06031D7D29DD
:1002F8007E298C298A11EC268A11831203132B0874
:1003080003198729892901308A290030AB0053292C
:100318000E306B06031D91299229D7298A11EC26E4
:100328008A11831203132C0803199B299C2953292A
:100338008B13E901AC2969083C3E8400831300084B
:10034800FF006908A03E84007F0880000130E907AB
:1003580069082C020318B129B2299F292C08A80082
:10036800A701A6018B178A1186268A116430831289
:100378000313D0000030D1008A11C3258A114130FF
:1003880083120313E700EE30E600E60BC929E70BFA
:10039800C929643083120313D0000030D1008A11B8
:1003A800C3258A1153290F306B06031DDC29DD296B
:1003B800E1298A11EC268A1153296B08BC3E840076
:1003C80083130008EA006A08031DEB29EC29ED29CC
:1003D800442A6A08D0000030031D8030D1008A11F9
:1003E800A1258A11831203135008E8006B082A0616
:1003F800031DFF29002A2E2A200821040319052A93
:10040800062A2E2A6808E600E7016608D000670871
:10041800D1002908013ED200003003180130D30072
:100428008A1133248A11831203135008A90029085A
:100438006A0784008A1196248A118A1151258A1123
:100448008A11BA268A11203083120313A0000330C0
:10045800A10053298A11EC268A1183120313A901DA
:100468006A0884008A1196248A118A1151258A11F2
:100478008A111E258A11831203136B08AA00272AE2
:1004880008008C19482A492A4A2ADA2A141F4D2AB0
:100498004E2A502A14131308831603131419552AC5
:1004A800562AAE2A941A592A5A2A612A8312031301
:1004B8001308A301A401A501D82A83120313130862
:1004C800CE002308031D692A6A2A7D2A4E08A50042
:1004D8000E302502031C712A722A742A0D30A500D9
:1004E800A40125080319792A7A2AD82A0130A300F9
:1004F800D82A250824020318822A832A8B2A24084A
:100508002E3E84004E08831380000130A40725087E
:100518002402031C902A912AD82A24082E3E8400FB
:1005280083138001CF01A42A4F082E3E84000008BF
:10053800FF004F08AE3E84007F0880000130CF07DF
:100548004F0824020318A92AAA2A982A0130A200CF
:10055800A301D82A941AB12AB22AB92A83120313FA
:100568001308A70128089300D82A83120313280820
:100578000319BF2AC02AD72A280827020318C52A20
:10058800C62AD72A2708A03E8400831300089300B0
:100598000130A70728082702031CD32AD42AD82AFF
:1005A8000130A600D82A930114168C114D084C0866
:1005B8008A004B0884004A0E8300FE0E7E0E090056
:1005C80083120313DA0100308A1101268A1153308D
:1005D8008A11DA268A113A308A11DA268A112030ED
:1005E8008A11DA268A1183120313E5012C086502A1
:1005F800031CFF2A002B052B2030E0000030E1000F
:10060800102B65083C3E840083130008DE00DF01E0
:100618005E08E0005F08E10060088A11DA268A11A6
:10062800013083120313E5070D306502031C1D2BEF
:100638001E2BFA2ADA01DA0A00308A1101268A11F9
:1006480052308A11DA268A113A308A11DA268A114A
:1006580020308A11DA268A11AE3083120313D000B3
:100668000030D1008A11A1258A1183120313500882
:10067800E400E50164086502031C432B442B492B65
:100688002030E2000030E300542B6508AE3E8400C1
:1006980083130008DE00DF015E08E2005F08E30064
:1006A80062088A11DA268A11013083120313E507DA
:1006B8000D306502031C612B622B3E2BDA012D08DD
:1006C800033E8A1101268A110F308A111D268A11CC
:1006D8000800831203138501343083120313DB00EF
:1006E800F130DA00DA0B762BDB0B762B0000831265
:1006F8000313051003308A116E268A1107308312FE
:100708000313DB007C30DA00DA0B882BDB0B882B39
:100718008D2B03308A116E268A11C730831203137A
:10072800DA00962BDA0B952B992B000003308A11EF
:100738006E268A11C73083120313DA00A32BDA0B53
:10074800A22BA62B000002308A116E268A110330D4
:1007580083120313DB009730DA00DA0BB12BDB0BC3
:10076800B12B000028308A111D268A110C308A11FD
:100778001D268A1106308A111D268A1101308A1118
:100788001D268A11043083120313DB00E430DA00DB
:10079800DA0BCC2BDB0BCC2B080083120313D20112
:1007A80004305202031CD92BDA2BDB2B2F2CF03010
:1007B800831603138600013083120313D000520AF4
:1007C800E72B0310D00DFF3E031DE52B5008FF3A21
:1007D8000F398600023083120313D000D00BF22B9E
:1007E800F52B831203130608D00004300310D00C35
:1007F800FF3E031DFA2B5008D1000F30D1050F30F2
:1008080051060319082C092C2C2CD3010130D000D7
:10081800530A102C0310D00DFF3E031D0E2C500858
:100828005105031D182C192C242C5208D000023015
:100838000310D00DFF3E031D1C2C53085007322C0B
:100848000130D30704305302031C2B2C2C2C0A2C08
:100858000130D207D42B0F308600FF3008008312F6
:100868000313D501D31F392C3A2C412CD209D309B3
:10087800D20A0319D30A0130D500D11F442C452CC4
:100888004A2CD009D109D00A0319D10A50085104B9
:1008980003194F2C502C7D2C0130D4005C2C0130D6
:1008A8000310D00DD10DFF3E031D542C0130D40789
:1008B800D11F5F2C602C532C51085302031D662C4A
:1008C80050085202031C692C6A2C702C5008D20262
:1008D8005108031CD303D30201300310D10CD00CF0
:1008E800FF3E031D712C0130D402031D7C2C7D2C8E
:1008F800602C55080319812C822C872CD209D30926
:10090800D20A0319D30A5308D1005208D0000800AC
:10091800FF1B962C83137F1883170008840A03197A
:10092800FF0A080004308A000408840A8207003499
:1009380052343A34203452344534413444345934EE
:1009480020342034203420342034203420342034FF
:10095800003450345134523453343734003457341B
:10096800583459345A343934003431342E342C3410
:1009780021343F3400344134423443343234003477
:1009880044344534463433340034473448344934E5
:10099800343400344A344B344C34353400344D3418
:1009A8004E344F3436340034543455345634383495
:1009B8000034203430340034831203132D08031913
:1009C800E62CE72C1D2D2C08031DEB2CEC2CED2C14
:1009D8001D2D2D08FF3ED200002D8312031352084F
:1009E8003D3E840083130008FF0052083C3E84000B
:1009F8007F0880000130D2072C08FF3ED000FF306E
:100A080003180030D1005108803A803C031D0E2D98
:100A180050085202031C112D122DF12C01308312A3
:100A28000313AC020130AD022C083C3E8400831352
:100A38008001080083120313D6000D302C02031C1A
:100A4800262D272D282D502D2C08D700382D570856
:100A58003B3E840083130008FF0057083C3E840097
:100A68007F088000FF30D7072D08803AD500570847
:100A7800803AD502031C412D422D2B2D2D083C3EDA
:100A880084005608831380000130AC070130AD079D
:100A98002C083C3E84008001080083120313D40014
:100AA80041305402031C592D5A2D772D5B305402C6
:100AB80003185F2D602D772D2B08031D642D652DE0
:100AC8006E2D5408203ED000D1015008D2005108A4
:100AD800D300752D5408D000D1015008D200510818
:100AE800D3005208782D5408080083120313D60047
:100AF800560C031C051003180514822D832D0000C5
:100B0800831203135408D50004300310D50CFF3E9C
:100B1800031D892D55088A116E268A118312031325
:100B280054080F398A116E268A112730831203134D
:100B3800D500D50B9D2D0000080083120313500823
:100B4800D2005108D300AE2D0130D0070318D10AC6
:100B58000030D1075108FF00500884008A118C2406
:100B68008A11003A031DB92DBA2DA82D520850023A
:100B7800D0005308031C530A5102D1000800831205
:100B880003130714D02DC73083120313D200CC2DC2
:100B9800D20BCB2DCF2D0000013083120313D002CE
:100BA8000030031CD103D102500A031DDF2D510A66
:100BB800031DDF2DE02DC72D071008008316031332
:100BC8008715071620309300803094003630831242
:100BD8000313940001308316031391008312031347
:100BE800A301A401A501A801A701A6018C118316E0
:100BF80003138C150B178B17080083120313DD00E2
:100C08005A080319082E092E112E5D08C03EDB0074
:100C1800003003180130DC00182E5D08803EDB0030
:100C2800003003180130DC005B088A111D268A1188
:100C3800080083120313D9005908D40000308A1120
:100C480079258A11043083120313590203182D2EB3
:100C58002E2E382E043083120313D800E430D70028
:100C6800D70B342ED80B342E0800831203135008E8
:100C7800D500452E550884005108831380000130A3
:100C8800D5070130D3020030031CD403D402530A21
:100C9800031D522E540A031D522E532E3E2E0800B9
:100CA800612E580884008A1196248A118A11DA263E
:100CB8008A11013083120313D807831203135808CB
:100CC80084008A1196248A11003A031D6C2E6D2E19
:100CD800552E080083120313D2000508D3000330F1
:100CE800D30552080F39D10001300310D10DFF3E52
:100CF800031D792E0310510D530485008A11CA264D
:100D08008A1108003C3083120313D0000030D10050
:100D1800D2000E30D3000030D4008A1139268A114F
:100D280083120313AC01AD0108007E088A007F0816
:100D380082008A1199268A118000840A04087D0697
:100D480003190034FF0A0319FE0A9D2E1E342434A9
:100D5800293400342E3433343834003412343D34DA
:100D6800183400340034423400340034831203133E
:100D7800D5002D08031DC12EC22EC32EC92E2D0845
:100D88003B3E840055088313800008008312031338
:100D98008514CE2ECF2E8312031385102030831294
:100DA8000313D000D00BD62ED92E080083120313BC
:100DB800D7005708D40001308A1179258A11080014
:100DC80064008001840A0406031900340406E52E31
:100DD800FF3083120313AA00A901A001A101080092
:02400E00713F00
:00000001FF
