:040000008A110F282A
:10000800FE00030E83120313D1000408D2000A086D
:10001800D3008A11E3298A1111288313CC30FD00FB
:100028000630FE005730FF00BC3084008A114A2693
:100038008A11A0308400BC308A1190268A112030A1
:1000480084004A308A1190268A1183018A11202956
:1000580083120313EE0003306E06031D342835287F
:1000680045288A1198268A11831203132D0803192B
:100078003E283F2841280130AD028A117B228A118F
:100088001F2907306E06031D4A284B2859288A1154
:1000980098268A11831203132C082D020318552859
:1000A800562841280130AD0741280B306E06031D44
:1000B8005E285F2866288A1198268A118A11652485
:1000C8008A1141280C306E06031D6B286C287A288B
:1000D8008A1198268A11831203132B08031975288D
:1000E8007728013078280030AB0041280E306E06A2
:1000F800031D7F288028B2288A1198268A11831226
:1001080003132C08031989288A2841288316031306
:100118008C112E3083120313D5003C30D6002C08E6
:10012800013ED700003003180130D8008A11262577
:100138008A11831203132C08A800A701831603133E
:100148008C158A1133268A11963083120313D50031
:100158000030D6008A118E258A1141280F306E068C
:10016800031DB728B828BC288A1198268A11412867
:100178006E08BC3E840083130008ED006D08031D63
:10018800C628C728C8281F296D08D5000030031DB8
:100198008030D6008A116C258A1183120313550802
:1001A800EC006E082A06031DDA28DB280929200836
:1001B80021040319E028E12809296C08EA00EB0169
:1001C8006A08D5006B08D6002908013ED700003020
:1001D80003180130D8008A11C9238A118312031326
:1001E8005508A90029086D0784008A112C248A1152
:1001F8008A11D6248A118A1167268A11203083121F
:100208000313A0000330A10041288A1198268A11FF
:1002180083120313A9016D0884008A112C248A1102
:100228008A11D6248A118A11A3248A1183120313EE
:100238006E08AA00022908000730831603139F00DE
:100248008501F0308600183087008312031385017A
:100258000F30860087018A1104238A118A11AD257F
:100268008A113C3083120313D5000030D600D70022
:100278000E30D8000030D9008A1104268A11AE3019
:1002880083120313D5000030D600D7000E30D800F3
:100298000030D9008A1104268A112E3083120313E4
:1002A800D5000030D600D7000E30D8000030D90075
:1002B8008A1104268A1183120313AD01AC0101309F
:1002C800AB00FF30AA00A901A001A101A2018A1177
:1002D8007B228A11FF3083120313F1008312031368
:1002E80022080319782979298429A2017830D500B0
:1002F8000030D6008A118E258A118A117B228A1134
:100308008A1167238A1183120313F200720A0319F0
:100318008E298F29BB2972087106031994299529FA
:10032800BB29413083120313F000EE30EF00EF0BCE
:100338009B29F00B9B298A1167238A1183120313C7
:100348007206031DA829A929C2295030D5000030FA
:10035800D6008A118E258A118312031372088A1116
:100368002C208A11831203137208F100C229720A21
:10037800031DBF29C029C229FF30F100200821042C
:100388000319C729C829D7290130A0020030031C46
:10039800A103A10220082104031DD329D429D729A8
:1003A8008A1198268A11C73083120313EF00DC29BB
:1003B800EF0BDB29DF29000072298A110F288C191D
:1003C800E629E729E829722A141FEB29EC29EE29E6
:1003D80014131308831603131419F329F429442A50
:1003E800941AF729F829FF29831203131308A30184
:1003F800A401A501422A831203131308D400230879
:10040800031D072A082A162A5408A5000E302502BB
:10041800031C0F2A102A122A0D30A500A40101304E
:10042800A300422A2508240203181B2A1C2A242A6E
:100438002408A03E84005408831380000130A407D8
:1004480025082402031C292A2A2A422A2408A03E15
:10045800840083138001AE30CA00A030CB0024088A
:10046800013ECC00003003180130CD008A11492527
:100478008A11013083120313A200A3011416712AF2
:10048800941A472A482A522A831203131308A701E9
:10049800A601280893000130A600702A83120313CE
:1004A80028080319582A592A6F2A280827020318E6
:1004B8005E2A5F2A6F2A27082E3E840083130008CD
:1004C80093000130A70728082702031C6C2A6D2A0D
:1004D800702AA801702A930114168C1153088A00F7
:1004E80052088400510E8300FE0E7E0E090083120E
:1004F8000313DE0100308A11E8258A1153308A116E
:1005080086268A113A308A1186268A1120308A1165
:1005180086268A1183120313E9012C086902031C39
:10052800962A972A9C2A2030E4000030E500A72A62
:1005380069083C3E840083130008E200E301620876
:10054800E4006308E50064088A1186268A110130F0
:1005580083120313E9070D306902031CB42AB52A74
:10056800912ADE01DE0A00308A11E8258A1152300C
:100578008A1186268A113A308A1186268A112030F5
:100588008A1186268A11AE3083120313D5000030F3
:10059800D6008A116C258A11831203135508E800C6
:1005A800E90168086902031CDA2ADB2AE02A2030FC
:1005B800E6000030E700EB2A6908AE3E84008313AA
:1005C8000008E200E3016208E6006308E700660845
:1005D8008A1186268A11013083120313E9070D3028
:1005E8006902031CF82AF92AD52ADE012D08033EE0
:1005F8008A11E8258A110F308A11CB258A11080043
:10060800831203138501273083120313DF00F430AC
:10061800DE00DE0B0D2BDF0B0D2B122B83120313C9
:10062800051003308A111F268A110730831203131D
:10063800DF007C30DE00DE0B1F2BDF0B1F2B242B93
:1006480003308A111F268A11C73083120313DE0074
:100658002D2BDE0B2C2B302B000003308A111F268C
:100668008A11C73083120313DE003A2BDE0B392BB5
:100678003D2B000002308A111F268A11C7308312D1
:100688000313DE00472BDE0B462B4A2B00002830D5
:100698008A11CB258A110C308A11CB258A11063094
:1006A8008A11CB258A1101308A11CB258A11033092
:1006B80083120313DF009730DE00DE0B612BDF0BA4
:1006C800612B0000080083120313D701043057027E
:1006D800031C6F2B702B712BC52BF0308316031363
:1006E8008600013083120313D500570A7D2B0310AF
:1006F800D50DFF3E031D7B2B5508FF3A0F398600A9
:10070800023083120313D500D50B882B8B2B831251
:1007180003130608D50004300310D50CFF3E031D53
:10072800902B5508D6000F30D6050F305606031902
:100738009E2B9F2BC22BD8010130D500580AA62B1F
:100748000310D50DFF3E031DA42B55085605031DA8
:10075800AE2BAF2BBA2B5708D50002300310D50D9E
:10076800FF3E031DB22B58085507C82B0130D80788
:1007780004305802031CC12BC22BA02B0130D70711
:100788006A2B0F308600FF30080083120313DA014A
:10079800D81FCF2BD02BD72BD709D809D70A0319A5
:1007A800D80A0130DA00D61FDA2BDB2BE02BD5096B
:1007B800D609D50A0319D60A550856040319E52B94
:1007C800E62B132C0130D900F22B01300310D50D84
:1007D800D60DFF3E031DEA2B0130D907D61FF52B96
:1007E800F62BE92B56085802031DFC2B5508570217
:1007F800031CFF2B002C062C5508D7025608031C97
:10080800D803D80201300310D60CD50CFF3E031DC7
:10081800072C0130D902031D122C132CF62B5A0871
:100828000319172C182C1D2CD709D809D70A031916
:10083800D80A5808D6005708D5000800FF1B2C2CEA
:1008480083137F1883170008840A0319FF0A080016
:1008580004308A000408840A820700345034513472
:1008680052345334373400345734583459345A34A2
:100878003934003431342E342C3421343F340034AC
:1008880041344234433432340034443445344634F9
:1008980033340034473448344934343400344A3427
:1008A8004B344C34353400344D344E344F343634B4
:1008B8000034543455345634383400342034303409
:1008C8000034831203132D0803196B2C6C2CA22CF3
:1008D8002C08031D702C712C722CA22C2D08FF3EA5
:1008E800D700852C8312031357083D3E84008313D9
:1008F8000008D50057083C3E8400550880000130A8
:10090800D7072C08FF3ED500FF3003180030D6006B
:100918005608803A803C031D932C55085702031C47
:10092800962C972C762C013083120313AC020130DD
:10093800AD022C083C3E840083138001080083121A
:100948000313DB000D302C02031CAB2CAC2CAD2C9C
:10095800D52C2C08DC00BD2C5C083B3E840083139E
:100968000008DA005C083C3E84005A088000FF302A
:10097800DC072D08803ADA005C08803ADA02031CAA
:10098800C62CC72CB02C2D083C3E84005B08831372
:1009980080000130AC070130AD072C083C3E8400D4
:1009A8008001080083120313D90041305902031C47
:1009B800DE2CDF2CFC2C5B3059020318E42CE52CD0
:1009C800FC2C2B08031DE92CEA2CF32C5908203E9B
:1009D800D500D6015508D7005608D800FA2C590872
:1009E800D500D6015508D7005608D8005708FD2C61
:1009F8005908080083120313DA005A0C031C051067
:100A080003180514072D082D000083120313580836
:100A1800D90004300310D90CFF3E031D0E2D5908D0
:100A28008A111F268A118312031358080F398A1155
:100A38001F268A11203083120313D900D90B222DC7
:100A4800252D0800831203135608DB005508DA0029
:100A58003A2D5B08840083130008D9000130DB07B6
:100A68005A088400590880000130DA070130D7029B
:100A78000030031CD803D802570A031D472D580A13
:100A8800031D472D482D2D2D0800831203134B08F5
:100A9800D0004A08CF005D2D500884008313000859
:100AA800CE000130D0074F0884004E088000013086
:100AB800CF070130CC020030031CCD03CD024C0A15
:100AC800031D6A2D4D0A031D6A2D6B2D502D08003C
:100AD800831203135508D7005608D800792D013022
:100AE800D5070318D60A0030D6075608FF00550860
:100AF80084008A1122248A11003A031D842D852D31
:100B0800732D57085502D5005808031C580A560279
:100B1800D60008008312031307149B2DC7308312D5
:100B28000313D700972DD70B962D9A2D000001306F
:100B380083120313D5020030031CD603D602550ACC
:100B4800031DAA2D560A031DAA2DAB2D922D0710A1
:100B5800080083160313871507162030930080308A
:100B68009400263083120313940083160313910113
:100B780083120313A301A401A501A801A701A601DB
:100B88008C11831603138C150B178B17080083120F
:100B98000313DD005D08D80000308A11FE248A1195
:100BA8000430831203135D020318DB2DDC2DE72DBF
:100BB800033083120313DC009730DB00DB0BE22DDC
:100BC800DC0BE22D0000080083120313E1005E082D
:100BD8000319EF2DF02DF82D6108C03EDF0000301D
:100BE80003180130E000FF2D6108803EDF0000306F
:100BF80003180130E0005F088A11CB258A1108002C
:100C0800831203135508DA00102E5A088400560878
:100C1800831380000130DA070130D8020030031C4A
:100C2800D903D902580A031D1D2E590A031D1D2E6A
:100C38001E2E092E080083120313D70057080F39F8
:100C4800D60002300310D60DFF3E031D262E0508E0
:100C58000339560485008A1177268A1108003C302A
:100C680083120313D5000030D600D7000E30D80009
:100C78000030D9008A1104268A1183120313AC01AB
:100C8800AD0108007E088A007F0882008A11462686
:100C98008A118000840A04087D0603190034FF0ABB
:100CA8000319FE0A4A2E0D341334183400341D3447
:100CB80022342734003401342C340734003400340F
:100CC80031340034003483120313DA002D08031D75
:100CD8006E2E6F2E702E762E2D083B3E84005A08FD
:100CE8008313800008008312031385147B2E83125C
:100CF80003138510203083120313D500D50B822EE1
:100D0800852E080083120313DB005B08D80001302E
:100D18008A11FE248A11080064008001840A0406EE
:100D2800031900340406912EFF3083120313AA001E
:080D3800A901A001A1010800BE
:02400E00713F00
:00000001FF
